{
  "_format": "hh-sol-artifact-1",
  "contractName": "GovernorContract",
  "sourceName": "contracts/governance_standard/GovernorContract.sol",
  "abi": [
    {
      "inputs": [
        {
          "internalType": "contract IVotes",
          "name": "_token",
          "type": "address"
        },
        {
          "internalType": "contract TimelockController",
          "name": "_timelock",
          "type": "address"
        },
        {
          "internalType": "uint256",
          "name": "_votingDelay",
          "type": "uint256"
        },
        {
          "internalType": "uint256",
          "name": "_votingPeriod",
          "type": "uint256"
        },
        {
          "internalType": "uint256",
          "name": "_quorumPercentage",
          "type": "uint256"
        }
      ],
      "stateMutability": "nonpayable",
      "type": "constructor"
    },
    {
      "inputs": [],
      "name": "Empty",
      "type": "error"
    },
    {
      "anonymous": false,
      "inputs": [
        {
          "indexed": false,
          "internalType": "uint256",
          "name": "proposalId",
          "type": "uint256"
        }
      ],
      "name": "ProposalCanceled",
      "type": "event"
    },
    {
      "anonymous": false,
      "inputs": [
        {
          "indexed": false,
          "internalType": "uint256",
          "name": "proposalId",
          "type": "uint256"
        },
        {
          "indexed": false,
          "internalType": "address",
          "name": "proposer",
          "type": "address"
        },
        {
          "indexed": false,
          "internalType": "address[]",
          "name": "targets",
          "type": "address[]"
        },
        {
          "indexed": false,
          "internalType": "uint256[]",
          "name": "values",
          "type": "uint256[]"
        },
        {
          "indexed": false,
          "internalType": "string[]",
          "name": "signatures",
          "type": "string[]"
        },
        {
          "indexed": false,
          "internalType": "bytes[]",
          "name": "calldatas",
          "type": "bytes[]"
        },
        {
          "indexed": false,
          "internalType": "uint256",
          "name": "startBlock",
          "type": "uint256"
        },
        {
          "indexed": false,
          "internalType": "uint256",
          "name": "endBlock",
          "type": "uint256"
        },
        {
          "indexed": false,
          "internalType": "string",
          "name": "description",
          "type": "string"
        }
      ],
      "name": "ProposalCreated",
      "type": "event"
    },
    {
      "anonymous": false,
      "inputs": [
        {
          "indexed": false,
          "internalType": "uint256",
          "name": "proposalId",
          "type": "uint256"
        }
      ],
      "name": "ProposalExecuted",
      "type": "event"
    },
    {
      "anonymous": false,
      "inputs": [
        {
          "indexed": false,
          "internalType": "uint256",
          "name": "proposalId",
          "type": "uint256"
        },
        {
          "indexed": false,
          "internalType": "uint256",
          "name": "eta",
          "type": "uint256"
        }
      ],
      "name": "ProposalQueued",
      "type": "event"
    },
    {
      "anonymous": false,
      "inputs": [
        {
          "indexed": false,
          "internalType": "uint256",
          "name": "oldProposalThreshold",
          "type": "uint256"
        },
        {
          "indexed": false,
          "internalType": "uint256",
          "name": "newProposalThreshold",
          "type": "uint256"
        }
      ],
      "name": "ProposalThresholdSet",
      "type": "event"
    },
    {
      "anonymous": false,
      "inputs": [
        {
          "indexed": false,
          "internalType": "uint256",
          "name": "oldQuorumNumerator",
          "type": "uint256"
        },
        {
          "indexed": false,
          "internalType": "uint256",
          "name": "newQuorumNumerator",
          "type": "uint256"
        }
      ],
      "name": "QuorumNumeratorUpdated",
      "type": "event"
    },
    {
      "anonymous": false,
      "inputs": [
        {
          "indexed": false,
          "internalType": "address",
          "name": "oldTimelock",
          "type": "address"
        },
        {
          "indexed": false,
          "internalType": "address",
          "name": "newTimelock",
          "type": "address"
        }
      ],
      "name": "TimelockChange",
      "type": "event"
    },
    {
      "anonymous": false,
      "inputs": [
        {
          "indexed": true,
          "internalType": "address",
          "name": "voter",
          "type": "address"
        },
        {
          "indexed": false,
          "internalType": "uint256",
          "name": "proposalId",
          "type": "uint256"
        },
        {
          "indexed": false,
          "internalType": "uint8",
          "name": "support",
          "type": "uint8"
        },
        {
          "indexed": false,
          "internalType": "uint256",
          "name": "weight",
          "type": "uint256"
        },
        {
          "indexed": false,
          "internalType": "string",
          "name": "reason",
          "type": "string"
        }
      ],
      "name": "VoteCast",
      "type": "event"
    },
    {
      "anonymous": false,
      "inputs": [
        {
          "indexed": true,
          "internalType": "address",
          "name": "voter",
          "type": "address"
        },
        {
          "indexed": false,
          "internalType": "uint256",
          "name": "proposalId",
          "type": "uint256"
        },
        {
          "indexed": false,
          "internalType": "uint8",
          "name": "support",
          "type": "uint8"
        },
        {
          "indexed": false,
          "internalType": "uint256",
          "name": "weight",
          "type": "uint256"
        },
        {
          "indexed": false,
          "internalType": "string",
          "name": "reason",
          "type": "string"
        },
        {
          "indexed": false,
          "internalType": "bytes",
          "name": "params",
          "type": "bytes"
        }
      ],
      "name": "VoteCastWithParams",
      "type": "event"
    },
    {
      "anonymous": false,
      "inputs": [
        {
          "indexed": false,
          "internalType": "uint256",
          "name": "oldVotingDelay",
          "type": "uint256"
        },
        {
          "indexed": false,
          "internalType": "uint256",
          "name": "newVotingDelay",
          "type": "uint256"
        }
      ],
      "name": "VotingDelaySet",
      "type": "event"
    },
    {
      "anonymous": false,
      "inputs": [
        {
          "indexed": false,
          "internalType": "uint256",
          "name": "oldVotingPeriod",
          "type": "uint256"
        },
        {
          "indexed": false,
          "internalType": "uint256",
          "name": "newVotingPeriod",
          "type": "uint256"
        }
      ],
      "name": "VotingPeriodSet",
      "type": "event"
    },
    {
      "inputs": [],
      "name": "BALLOT_TYPEHASH",
      "outputs": [
        {
          "internalType": "bytes32",
          "name": "",
          "type": "bytes32"
        }
      ],
      "stateMutability": "view",
      "type": "function"
    },
    {
      "inputs": [],
      "name": "COUNTING_MODE",
      "outputs": [
        {
          "internalType": "string",
          "name": "",
          "type": "string"
        }
      ],
      "stateMutability": "pure",
      "type": "function"
    },
    {
      "inputs": [],
      "name": "EXTENDED_BALLOT_TYPEHASH",
      "outputs": [
        {
          "internalType": "bytes32",
          "name": "",
          "type": "bytes32"
        }
      ],
      "stateMutability": "view",
      "type": "function"
    },
    {
      "inputs": [
        {
          "internalType": "uint256",
          "name": "proposalId",
          "type": "uint256"
        },
        {
          "internalType": "uint8",
          "name": "support",
          "type": "uint8"
        }
      ],
      "name": "castVote",
      "outputs": [
        {
          "internalType": "uint256",
          "name": "",
          "type": "uint256"
        }
      ],
      "stateMutability": "nonpayable",
      "type": "function"
    },
    {
      "inputs": [
        {
          "internalType": "uint256",
          "name": "proposalId",
          "type": "uint256"
        },
        {
          "internalType": "uint8",
          "name": "support",
          "type": "uint8"
        },
        {
          "internalType": "uint8",
          "name": "v",
          "type": "uint8"
        },
        {
          "internalType": "bytes32",
          "name": "r",
          "type": "bytes32"
        },
        {
          "internalType": "bytes32",
          "name": "s",
          "type": "bytes32"
        }
      ],
      "name": "castVoteBySig",
      "outputs": [
        {
          "internalType": "uint256",
          "name": "",
          "type": "uint256"
        }
      ],
      "stateMutability": "nonpayable",
      "type": "function"
    },
    {
      "inputs": [
        {
          "internalType": "uint256",
          "name": "proposalId",
          "type": "uint256"
        },
        {
          "internalType": "uint8",
          "name": "support",
          "type": "uint8"
        },
        {
          "internalType": "string",
          "name": "reason",
          "type": "string"
        }
      ],
      "name": "castVoteWithReason",
      "outputs": [
        {
          "internalType": "uint256",
          "name": "",
          "type": "uint256"
        }
      ],
      "stateMutability": "nonpayable",
      "type": "function"
    },
    {
      "inputs": [
        {
          "internalType": "uint256",
          "name": "proposalId",
          "type": "uint256"
        },
        {
          "internalType": "uint8",
          "name": "support",
          "type": "uint8"
        },
        {
          "internalType": "string",
          "name": "reason",
          "type": "string"
        },
        {
          "internalType": "bytes",
          "name": "params",
          "type": "bytes"
        }
      ],
      "name": "castVoteWithReasonAndParams",
      "outputs": [
        {
          "internalType": "uint256",
          "name": "",
          "type": "uint256"
        }
      ],
      "stateMutability": "nonpayable",
      "type": "function"
    },
    {
      "inputs": [
        {
          "internalType": "uint256",
          "name": "proposalId",
          "type": "uint256"
        },
        {
          "internalType": "uint8",
          "name": "support",
          "type": "uint8"
        },
        {
          "internalType": "string",
          "name": "reason",
          "type": "string"
        },
        {
          "internalType": "bytes",
          "name": "params",
          "type": "bytes"
        },
        {
          "internalType": "uint8",
          "name": "v",
          "type": "uint8"
        },
        {
          "internalType": "bytes32",
          "name": "r",
          "type": "bytes32"
        },
        {
          "internalType": "bytes32",
          "name": "s",
          "type": "bytes32"
        }
      ],
      "name": "castVoteWithReasonAndParamsBySig",
      "outputs": [
        {
          "internalType": "uint256",
          "name": "",
          "type": "uint256"
        }
      ],
      "stateMutability": "nonpayable",
      "type": "function"
    },
    {
      "inputs": [
        {
          "internalType": "address[]",
          "name": "targets",
          "type": "address[]"
        },
        {
          "internalType": "uint256[]",
          "name": "values",
          "type": "uint256[]"
        },
        {
          "internalType": "bytes[]",
          "name": "calldatas",
          "type": "bytes[]"
        },
        {
          "internalType": "bytes32",
          "name": "descriptionHash",
          "type": "bytes32"
        }
      ],
      "name": "execute",
      "outputs": [
        {
          "internalType": "uint256",
          "name": "",
          "type": "uint256"
        }
      ],
      "stateMutability": "payable",
      "type": "function"
    },
    {
      "inputs": [
        {
          "internalType": "address",
          "name": "account",
          "type": "address"
        },
        {
          "internalType": "uint256",
          "name": "blockNumber",
          "type": "uint256"
        }
      ],
      "name": "getVotes",
      "outputs": [
        {
          "internalType": "uint256",
          "name": "",
          "type": "uint256"
        }
      ],
      "stateMutability": "view",
      "type": "function"
    },
    {
      "inputs": [
        {
          "internalType": "address",
          "name": "account",
          "type": "address"
        },
        {
          "internalType": "uint256",
          "name": "blockNumber",
          "type": "uint256"
        },
        {
          "internalType": "bytes",
          "name": "params",
          "type": "bytes"
        }
      ],
      "name": "getVotesWithParams",
      "outputs": [
        {
          "internalType": "uint256",
          "name": "",
          "type": "uint256"
        }
      ],
      "stateMutability": "view",
      "type": "function"
    },
    {
      "inputs": [
        {
          "internalType": "uint256",
          "name": "proposalId",
          "type": "uint256"
        },
        {
          "internalType": "address",
          "name": "account",
          "type": "address"
        }
      ],
      "name": "hasVoted",
      "outputs": [
        {
          "internalType": "bool",
          "name": "",
          "type": "bool"
        }
      ],
      "stateMutability": "view",
      "type": "function"
    },
    {
      "inputs": [
        {
          "internalType": "address[]",
          "name": "targets",
          "type": "address[]"
        },
        {
          "internalType": "uint256[]",
          "name": "values",
          "type": "uint256[]"
        },
        {
          "internalType": "bytes[]",
          "name": "calldatas",
          "type": "bytes[]"
        },
        {
          "internalType": "bytes32",
          "name": "descriptionHash",
          "type": "bytes32"
        }
      ],
      "name": "hashProposal",
      "outputs": [
        {
          "internalType": "uint256",
          "name": "",
          "type": "uint256"
        }
      ],
      "stateMutability": "pure",
      "type": "function"
    },
    {
      "inputs": [],
      "name": "name",
      "outputs": [
        {
          "internalType": "string",
          "name": "",
          "type": "string"
        }
      ],
      "stateMutability": "view",
      "type": "function"
    },
    {
      "inputs": [
        {
          "internalType": "address",
          "name": "",
          "type": "address"
        },
        {
          "internalType": "address",
          "name": "",
          "type": "address"
        },
        {
          "internalType": "uint256[]",
          "name": "",
          "type": "uint256[]"
        },
        {
          "internalType": "uint256[]",
          "name": "",
          "type": "uint256[]"
        },
        {
          "internalType": "bytes",
          "name": "",
          "type": "bytes"
        }
      ],
      "name": "onERC1155BatchReceived",
      "outputs": [
        {
          "internalType": "bytes4",
          "name": "",
          "type": "bytes4"
        }
      ],
      "stateMutability": "nonpayable",
      "type": "function"
    },
    {
      "inputs": [
        {
          "internalType": "address",
          "name": "",
          "type": "address"
        },
        {
          "internalType": "address",
          "name": "",
          "type": "address"
        },
        {
          "internalType": "uint256",
          "name": "",
          "type": "uint256"
        },
        {
          "internalType": "uint256",
          "name": "",
          "type": "uint256"
        },
        {
          "internalType": "bytes",
          "name": "",
          "type": "bytes"
        }
      ],
      "name": "onERC1155Received",
      "outputs": [
        {
          "internalType": "bytes4",
          "name": "",
          "type": "bytes4"
        }
      ],
      "stateMutability": "nonpayable",
      "type": "function"
    },
    {
      "inputs": [
        {
          "internalType": "address",
          "name": "",
          "type": "address"
        },
        {
          "internalType": "address",
          "name": "",
          "type": "address"
        },
        {
          "internalType": "uint256",
          "name": "",
          "type": "uint256"
        },
        {
          "internalType": "bytes",
          "name": "",
          "type": "bytes"
        }
      ],
      "name": "onERC721Received",
      "outputs": [
        {
          "internalType": "bytes4",
          "name": "",
          "type": "bytes4"
        }
      ],
      "stateMutability": "nonpayable",
      "type": "function"
    },
    {
      "inputs": [
        {
          "internalType": "uint256",
          "name": "proposalId",
          "type": "uint256"
        }
      ],
      "name": "proposalDeadline",
      "outputs": [
        {
          "internalType": "uint256",
          "name": "",
          "type": "uint256"
        }
      ],
      "stateMutability": "view",
      "type": "function"
    },
    {
      "inputs": [
        {
          "internalType": "uint256",
          "name": "proposalId",
          "type": "uint256"
        }
      ],
      "name": "proposalEta",
      "outputs": [
        {
          "internalType": "uint256",
          "name": "",
          "type": "uint256"
        }
      ],
      "stateMutability": "view",
      "type": "function"
    },
    {
      "inputs": [
        {
          "internalType": "uint256",
          "name": "proposalId",
          "type": "uint256"
        }
      ],
      "name": "proposalSnapshot",
      "outputs": [
        {
          "internalType": "uint256",
          "name": "",
          "type": "uint256"
        }
      ],
      "stateMutability": "view",
      "type": "function"
    },
    {
      "inputs": [],
      "name": "proposalThreshold",
      "outputs": [
        {
          "internalType": "uint256",
          "name": "",
          "type": "uint256"
        }
      ],
      "stateMutability": "view",
      "type": "function"
    },
    {
      "inputs": [
        {
          "internalType": "uint256",
          "name": "proposalId",
          "type": "uint256"
        }
      ],
      "name": "proposalVotes",
      "outputs": [
        {
          "internalType": "uint256",
          "name": "againstVotes",
          "type": "uint256"
        },
        {
          "internalType": "uint256",
          "name": "forVotes",
          "type": "uint256"
        },
        {
          "internalType": "uint256",
          "name": "abstainVotes",
          "type": "uint256"
        }
      ],
      "stateMutability": "view",
      "type": "function"
    },
    {
      "inputs": [
        {
          "internalType": "address[]",
          "name": "targets",
          "type": "address[]"
        },
        {
          "internalType": "uint256[]",
          "name": "values",
          "type": "uint256[]"
        },
        {
          "internalType": "bytes[]",
          "name": "calldatas",
          "type": "bytes[]"
        },
        {
          "internalType": "string",
          "name": "description",
          "type": "string"
        }
      ],
      "name": "propose",
      "outputs": [
        {
          "internalType": "uint256",
          "name": "",
          "type": "uint256"
        }
      ],
      "stateMutability": "nonpayable",
      "type": "function"
    },
    {
      "inputs": [
        {
          "internalType": "address[]",
          "name": "targets",
          "type": "address[]"
        },
        {
          "internalType": "uint256[]",
          "name": "values",
          "type": "uint256[]"
        },
        {
          "internalType": "bytes[]",
          "name": "calldatas",
          "type": "bytes[]"
        },
        {
          "internalType": "bytes32",
          "name": "descriptionHash",
          "type": "bytes32"
        }
      ],
      "name": "queue",
      "outputs": [
        {
          "internalType": "uint256",
          "name": "",
          "type": "uint256"
        }
      ],
      "stateMutability": "nonpayable",
      "type": "function"
    },
    {
      "inputs": [
        {
          "internalType": "uint256",
          "name": "blockNumber",
          "type": "uint256"
        }
      ],
      "name": "quorum",
      "outputs": [
        {
          "internalType": "uint256",
          "name": "",
          "type": "uint256"
        }
      ],
      "stateMutability": "view",
      "type": "function"
    },
    {
      "inputs": [],
      "name": "quorumDenominator",
      "outputs": [
        {
          "internalType": "uint256",
          "name": "",
          "type": "uint256"
        }
      ],
      "stateMutability": "view",
      "type": "function"
    },
    {
      "inputs": [],
      "name": "quorumNumerator",
      "outputs": [
        {
          "internalType": "uint256",
          "name": "",
          "type": "uint256"
        }
      ],
      "stateMutability": "view",
      "type": "function"
    },
    {
      "inputs": [
        {
          "internalType": "address",
          "name": "target",
          "type": "address"
        },
        {
          "internalType": "uint256",
          "name": "value",
          "type": "uint256"
        },
        {
          "internalType": "bytes",
          "name": "data",
          "type": "bytes"
        }
      ],
      "name": "relay",
      "outputs": [],
      "stateMutability": "nonpayable",
      "type": "function"
    },
    {
      "inputs": [
        {
          "internalType": "uint256",
          "name": "newProposalThreshold",
          "type": "uint256"
        }
      ],
      "name": "setProposalThreshold",
      "outputs": [],
      "stateMutability": "nonpayable",
      "type": "function"
    },
    {
      "inputs": [
        {
          "internalType": "uint256",
          "name": "newVotingDelay",
          "type": "uint256"
        }
      ],
      "name": "setVotingDelay",
      "outputs": [],
      "stateMutability": "nonpayable",
      "type": "function"
    },
    {
      "inputs": [
        {
          "internalType": "uint256",
          "name": "newVotingPeriod",
          "type": "uint256"
        }
      ],
      "name": "setVotingPeriod",
      "outputs": [],
      "stateMutability": "nonpayable",
      "type": "function"
    },
    {
      "inputs": [
        {
          "internalType": "uint256",
          "name": "proposalId",
          "type": "uint256"
        }
      ],
      "name": "state",
      "outputs": [
        {
          "internalType": "enum IGovernor.ProposalState",
          "name": "",
          "type": "uint8"
        }
      ],
      "stateMutability": "view",
      "type": "function"
    },
    {
      "inputs": [
        {
          "internalType": "bytes4",
          "name": "interfaceId",
          "type": "bytes4"
        }
      ],
      "name": "supportsInterface",
      "outputs": [
        {
          "internalType": "bool",
          "name": "",
          "type": "bool"
        }
      ],
      "stateMutability": "view",
      "type": "function"
    },
    {
      "inputs": [],
      "name": "timelock",
      "outputs": [
        {
          "internalType": "address",
          "name": "",
          "type": "address"
        }
      ],
      "stateMutability": "view",
      "type": "function"
    },
    {
      "inputs": [],
      "name": "token",
      "outputs": [
        {
          "internalType": "contract IVotes",
          "name": "",
          "type": "address"
        }
      ],
      "stateMutability": "view",
      "type": "function"
    },
    {
      "inputs": [
        {
          "internalType": "uint256",
          "name": "newQuorumNumerator",
          "type": "uint256"
        }
      ],
      "name": "updateQuorumNumerator",
      "outputs": [],
      "stateMutability": "nonpayable",
      "type": "function"
    },
    {
      "inputs": [
        {
          "internalType": "contract TimelockController",
          "name": "newTimelock",
          "type": "address"
        }
      ],
      "name": "updateTimelock",
      "outputs": [],
      "stateMutability": "nonpayable",
      "type": "function"
    },
    {
      "inputs": [],
      "name": "version",
      "outputs": [
        {
          "internalType": "string",
          "name": "",
          "type": "string"
        }
      ],
      "stateMutability": "view",
      "type": "function"
    },
    {
      "inputs": [],
      "name": "votingDelay",
      "outputs": [
        {
          "internalType": "uint256",
          "name": "",
          "type": "uint256"
        }
      ],
      "stateMutability": "view",
      "type": "function"
    },
    {
      "inputs": [],
      "name": "votingPeriod",
      "outputs": [
        {
          "internalType": "uint256",
          "name": "",
          "type": "uint256"
        }
      ],
      "stateMutability": "view",
      "type": "function"
    },
    {
      "stateMutability": "payable",
      "type": "receive"
    }
  ],
  "bytecode": "0x6101606040523480156200001257600080fd5b5060405162006ca638038062006ca6833981810160405281019062000038919062000695565b838186858560006040518060400160405280601081526020017f476f7665726e6f72436f6e7472616374000000000000000000000000000000008152508062000086620001f360201b60201c565b60008280519060200120905060008280519060200120905060007f8b73c3c69bb8fe3d512ecc4cf759cc79239f7b179b0ffacaa9a75d522b39400f90508260e081815250508161010081815250504660a08181525050620000ef8184846200023060201b60201c565b608081815250503073ffffffffffffffffffffffffffffffffffffffff1660c08173ffffffffffffffffffffffffffffffffffffffff1660601b815250508061012081815250505050505050806000908051906020019062000153929190620004d3565b505062000166836200026c60201b60201c565b6200017782620002b360201b60201c565b62000188816200034060201b60201c565b5050508073ffffffffffffffffffffffffffffffffffffffff166101408173ffffffffffffffffffffffffffffffffffffffff1660601b8152505050620001d5816200038760201b60201c565b50620001e7816200042960201b60201c565b505050505050620009dd565b60606040518060400160405280600181526020017f3100000000000000000000000000000000000000000000000000000000000000815250905090565b600083838346306040516020016200024d9594939291906200075a565b6040516020818303038152906040528051906020012090509392505050565b7fc565b045403dc03c2eea82b81a0465edad9e2e7fc4d97e11421c209da93d7a9360045482604051620002a1929190620007b7565b60405180910390a18060048190555050565b60008111620002f9576040517f08c379a0000000000000000000000000000000000000000000000000000000008152600401620002f0906200086b565b60405180910390fd5b7f7e3f7f0708a84de9203036abaa450dccc85ad5ff52f78c170f3edb55cf5e8828600554826040516200032e929190620007b7565b60405180910390a18060058190555050565b7fccb45da8d5717e6c4544694297c4ba5cf151d455c9bb0ed4fc7a38411bc054616006548260405162000375929190620007b7565b60405180910390a18060068190555050565b62000397620004ca60201b60201c565b811115620003dc576040517f08c379a0000000000000000000000000000000000000000000000000000000008152600401620003d39062000929565b60405180910390fd5b60006008549050816008819055507f0553476bf02ef2726e8ce5ced78d63e26e602e4a2257b1f559418e24b463399781836040516200041d929190620007b7565b60405180910390a15050565b7f08f74ea46ef7894f65eabfb5e6e695de773a000b47c529ab559178069b226401600960009054906101000a900473ffffffffffffffffffffffffffffffffffffffff16826040516200047e9291906200094b565b60405180910390a180600960006101000a81548173ffffffffffffffffffffffffffffffffffffffff021916908373ffffffffffffffffffffffffffffffffffffffff16021790555050565b60006064905090565b828054620004e190620009a7565b90600052602060002090601f01602090048101928262000505576000855562000551565b82601f106200052057805160ff191683800117855562000551565b8280016001018555821562000551579182015b828111156200055057825182559160200191906001019062000533565b5b50905062000560919062000564565b5090565b5b808211156200057f57600081600090555060010162000565565b5090565b600080fd5b600073ffffffffffffffffffffffffffffffffffffffff82169050919050565b6000620005b58262000588565b9050919050565b6000620005c982620005a8565b9050919050565b620005db81620005bc565b8114620005e757600080fd5b50565b600081519050620005fb81620005d0565b92915050565b60006200060e8262000588565b9050919050565b6000620006228262000601565b9050919050565b620006348162000615565b81146200064057600080fd5b50565b600081519050620006548162000629565b92915050565b6000819050919050565b6200066f816200065a565b81146200067b57600080fd5b50565b6000815190506200068f8162000664565b92915050565b600080600080600060a08688031215620006b457620006b362000583565b5b6000620006c488828901620005ea565b9550506020620006d78882890162000643565b9450506040620006ea888289016200067e565b9350506060620006fd888289016200067e565b925050608062000710888289016200067e565b9150509295509295909350565b6000819050919050565b62000732816200071d565b82525050565b62000743816200065a565b82525050565b6200075481620005a8565b82525050565b600060a08201905062000771600083018862000727565b62000780602083018762000727565b6200078f604083018662000727565b6200079e606083018562000738565b620007ad608083018462000749565b9695505050505050565b6000604082019050620007ce600083018562000738565b620007dd602083018462000738565b9392505050565b600082825260208201905092915050565b7f476f7665726e6f7253657474696e67733a20766f74696e6720706572696f642060008201527f746f6f206c6f7700000000000000000000000000000000000000000000000000602082015250565b600062000853602783620007e4565b91506200086082620007f5565b604082019050919050565b60006020820190508181036000830152620008868162000844565b9050919050565b7f476f7665726e6f72566f74657351756f72756d4672616374696f6e3a2071756f60008201527f72756d4e756d657261746f72206f7665722071756f72756d44656e6f6d696e6160208201527f746f720000000000000000000000000000000000000000000000000000000000604082015250565b600062000911604383620007e4565b91506200091e826200088d565b606082019050919050565b60006020820190508181036000830152620009448162000902565b9050919050565b600060408201905062000962600083018562000749565b62000971602083018462000749565b9392505050565b7f4e487b7100000000000000000000000000000000000000000000000000000000600052602260045260246000fd5b60006002820490506001821680620009c057607f821691505b60208210811415620009d757620009d662000978565b5b50919050565b60805160a05160c05160601c60e05161010051610120516101405160601c61625a62000a4c60003960008181611ca4015281816127c90152612a4b01526000612d2001526000612d6201526000612d4101526000612c7601526000612ccc01526000612cf5015261625a6000f3fe60806040526004361061023f5760003560e01c80637d5e81e21161012e578063c59057e4116100ab578063eb9019d41161006f578063eb9019d4146109ac578063ece40cc1146109e9578063f23a6e6114610a12578063f8ce560a14610a4f578063fc0c546a14610a8c57610285565b8063c59057e4146108c5578063d33219b414610902578063dd4e2ba51461092d578063deaaa7cc14610958578063ea0217cf1461098357610285565b8063ab58fb8e116100f2578063ab58fb8e146107ba578063b58131b0146107f7578063bc197c8114610822578063c01f9e371461085f578063c28bc2fa1461089c57610285565b80637d5e81e2146106c157806397c3d334146106fe5780639a802a6d14610729578063a7713a7014610766578063a890c9101461079157610285565b80633932abb1116101bc57806354fd4d501161018057806354fd4d50146105b657806356781388146105e15780635f398a141461061e57806370b0f6601461065b5780637b3c71d31461068457610285565b80633932abb1146104955780633bccf4fd146104c05780633e4f49e6146104fd578063438596321461053a578063544ffc9c1461057757610285565b8063150b7a0211610203578063150b7a0214610383578063160cbed7146103c05780632656227d146103fd5780632d63f6931461042d5780632fe3e2611461046a57610285565b806301ffc9a71461028a57806302a251a3146102c757806303420181146102f257806306f3f9e61461032f57806306fdde031461035857610285565b36610285573073ffffffffffffffffffffffffffffffffffffffff16610263610ab7565b73ffffffffffffffffffffffffffffffffffffffff161461028357600080fd5b005b600080fd5b34801561029657600080fd5b506102b160048036038101906102ac919061394d565b610ac6565b6040516102be9190613995565b60405180910390f35b3480156102d357600080fd5b506102dc610ad8565b6040516102e991906139c9565b60405180910390f35b3480156102fe57600080fd5b5061031960048036038101906103149190613c25565b610ae7565b60405161032691906139c9565b60405180910390f35b34801561033b57600080fd5b5061035660048036038101906103519190613d03565b610bcc565b005b34801561036457600080fd5b5061036d610cc8565b60405161037a9190613db8565b60405180910390f35b34801561038f57600080fd5b506103aa60048036038101906103a59190613e38565b610d5a565b6040516103b79190613eca565b60405180910390f35b3480156103cc57600080fd5b506103e760048036038101906103e2919061414c565b610d6e565b6040516103f491906139c9565b60405180910390f35b6104176004803603810190610412919061414c565b611046565b60405161042491906139c9565b60405180910390f35b34801561043957600080fd5b50610454600480360381019061044f9190613d03565b611193565b60405161046191906139c9565b60405180910390f35b34801561047657600080fd5b5061047f611201565b60405161048c9190614216565b60405180910390f35b3480156104a157600080fd5b506104aa611225565b6040516104b791906139c9565b60405180910390f35b3480156104cc57600080fd5b506104e760048036038101906104e29190614231565b611234565b6040516104f491906139c9565b60405180910390f35b34801561050957600080fd5b50610524600480360381019061051f9190613d03565b6112be565b6040516105319190614323565b60405180910390f35b34801561054657600080fd5b50610561600480360381019061055c919061433e565b6112d0565b60405161056e9190613995565b60405180910390f35b34801561058357600080fd5b5061059e60048036038101906105999190613d03565b61133b565b6040516105ad9392919061437e565b60405180910390f35b3480156105c257600080fd5b506105cb611373565b6040516105d89190613db8565b60405180910390f35b3480156105ed57600080fd5b50610608600480360381019061060391906143b5565b6113b0565b60405161061591906139c9565b60405180910390f35b34801561062a57600080fd5b50610645600480360381019061064091906143f5565b6113e1565b60405161065291906139c9565b60405180910390f35b34801561066757600080fd5b50610682600480360381019061067d9190613d03565b61144b565b005b34801561069057600080fd5b506106ab60048036038101906106a69190614499565b611547565b6040516106b891906139c9565b60405180910390f35b3480156106cd57600080fd5b506106e860048036038101906106e391906145ae565b6115af565b6040516106f591906139c9565b60405180910390f35b34801561070a57600080fd5b506107136115c7565b60405161072091906139c9565b60405180910390f35b34801561073557600080fd5b50610750600480360381019061074b9190614685565b6115d0565b60405161075d91906139c9565b60405180910390f35b34801561077257600080fd5b5061077b6115e6565b60405161078891906139c9565b60405180910390f35b34801561079d57600080fd5b506107b860048036038101906107b39190614744565b6115f0565b005b3480156107c657600080fd5b506107e160048036038101906107dc9190613d03565b6116ec565b6040516107ee91906139c9565b60405180910390f35b34801561080357600080fd5b5061080c6117c8565b60405161081991906139c9565b60405180910390f35b34801561082e57600080fd5b5061084960048036038101906108449190614771565b6117d7565b6040516108569190613eca565b60405180910390f35b34801561086b57600080fd5b5061088660048036038101906108819190613d03565b6117ec565b60405161089391906139c9565b60405180910390f35b3480156108a857600080fd5b506108c360048036038101906108be9190614896565b61185a565b005b3480156108d157600080fd5b506108ec60048036038101906108e7919061414c565b6119a0565b6040516108f991906139c9565b60405180910390f35b34801561090e57600080fd5b506109176119dc565b6040516109249190614919565b60405180910390f35b34801561093957600080fd5b50610942611a06565b60405161094f9190613db8565b60405180910390f35b34801561096457600080fd5b5061096d611a43565b60405161097a9190614216565b60405180910390f35b34801561098f57600080fd5b506109aa60048036038101906109a59190613d03565b611a67565b005b3480156109b857600080fd5b506109d360048036038101906109ce9190614934565b611b63565b6040516109e091906139c9565b60405180910390f35b3480156109f557600080fd5b50610a106004803603810190610a0b9190613d03565b611b7f565b005b348015610a1e57600080fd5b50610a396004803603810190610a349190614974565b611c7b565b604051610a469190613eca565b60405180910390f35b348015610a5b57600080fd5b50610a766004803603810190610a719190613d03565b611c90565b604051610a8391906139c9565b60405180910390f35b348015610a9857600080fd5b50610aa1611ca2565b604051610aae9190614a6a565b60405180910390f35b6000610ac1611cc6565b905090565b6000610ad182611cf0565b9050919050565b6000610ae2611d6a565b905090565b600080610b6a610b627fb3b3f3b703cd84ce352197dcff232b1b5d3cfb2025ce47cf04742d0651f1af888c8c8c8c604051610b23929190614ab5565b60405180910390208b80519060200120604051602001610b47959493929190614add565b60405160208183030381529060405280519060200120611d74565b868686611d8e565b9050610bbd8a828b8b8b8080601f016020809104026020016040519081016040528093929190818152602001838380828437600081840152601f19601f820116905080830192505050505050508a611db9565b91505098975050505050505050565b610bd4610ab7565b73ffffffffffffffffffffffffffffffffffffffff16610bf2611f76565b73ffffffffffffffffffffffffffffffffffffffff1614610c48576040517f08c379a0000000000000000000000000000000000000000000000000000000008152600401610c3f90614b7c565b60405180910390fd5b3073ffffffffffffffffffffffffffffffffffffffff16610c67610ab7565b73ffffffffffffffffffffffffffffffffffffffff1614610cbc576000610c8c611f7e565b604051610c9a929190614ab5565b604051809103902090505b80610cb06002611f8b565b14610cba57610ca5565b505b610cc581612067565b50565b606060008054610cd790614bcb565b80601f0160208091040260200160405190810160405280929190818152602001828054610d0390614bcb565b8015610d505780601f10610d2557610100808354040283529160200191610d50565b820191906000526020600020905b815481529060010190602001808311610d3357829003601f168201915b5050505050905090565b600063150b7a0260e01b9050949350505050565b600080610d7d868686866119a0565b905060046007811115610d9357610d926142ac565b5b610d9c826112be565b6007811115610dae57610dad6142ac565b5b14610dee576040517f08c379a0000000000000000000000000000000000000000000000000000000008152600401610de590614c6f565b60405180910390fd5b6000600960009054906101000a900473ffffffffffffffffffffffffffffffffffffffff1673ffffffffffffffffffffffffffffffffffffffff1663f27a0c926040518163ffffffff1660e01b815260040160206040518083038186803b158015610e5857600080fd5b505afa158015610e6c573d6000803e3d6000fd5b505050506040513d601f19601f82011682018060405250810190610e909190614ca4565b9050600960009054906101000a900473ffffffffffffffffffffffffffffffffffffffff1673ffffffffffffffffffffffffffffffffffffffff1663b1c5f4278888886000896040518663ffffffff1660e01b8152600401610ef6959493929190614fac565b60206040518083038186803b158015610f0e57600080fd5b505afa158015610f22573d6000803e3d6000fd5b505050506040513d601f19601f82011682018060405250810190610f469190615029565b600a600084815260200190815260200160002081905550600960009054906101000a900473ffffffffffffffffffffffffffffffffffffffff1673ffffffffffffffffffffffffffffffffffffffff16638f2a0bb0888888600089876040518763ffffffff1660e01b8152600401610fc396959493929190615056565b600060405180830381600087803b158015610fdd57600080fd5b505af1158015610ff1573d6000803e3d6000fd5b505050507f9a2e42fd6722813d69113e7d0079d3d940171428df7373df9c7f7617cfda289282824261102391906150fb565b604051611031929190615151565b60405180910390a18192505050949350505050565b600080611055868686866119a0565b90506000611062826112be565b905060046007811115611078576110776142ac565b5b81600781111561108b5761108a6142ac565b5b14806110bb5750600560078111156110a6576110a56142ac565b5b8160078111156110b9576110b86142ac565b5b145b6110fa576040517f08c379a00000000000000000000000000000000000000000000000000000000081526004016110f190614c6f565b60405180910390fd5b600180600084815260200190815260200160002060020160006101000a81548160ff0219169083151502179055507f712ae1383f79ac853f8d882153778e0260ef8f03b504e2866e0593e04d2b291f8260405161115791906139c9565b60405180910390a161116c82888888886120fc565b61117982888888886121e0565b61118682888888886121f4565b8192505050949350505050565b60006111f0600160008481526020019081526020016000206000016040518060200160405290816000820160009054906101000a900467ffffffffffffffff1667ffffffffffffffff1667ffffffffffffffff168152505061224f565b67ffffffffffffffff169050919050565b7fb3b3f3b703cd84ce352197dcff232b1b5d3cfb2025ce47cf04742d0651f1af8881565b600061122f61225d565b905090565b60008061129561128d7f150214d74d59b7d1e90c73fc22ef3d991dd0a76b046543d4d80ab92d2a50328f89896040516020016112729392919061517a565b60405160208183030381529060405280519060200120611d74565b868686611d8e565b90506112b287828860405180602001604052806000815250612267565b91505095945050505050565b60006112c982612287565b9050919050565b60006007600084815260200190815260200160002060030160008373ffffffffffffffffffffffffffffffffffffffff1673ffffffffffffffffffffffffffffffffffffffff16815260200190815260200160002060009054906101000a900460ff16905092915050565b600080600080600760008681526020019081526020016000209050806000015481600101548260020154935093509350509193909250565b60606040518060400160405280600181526020017f3100000000000000000000000000000000000000000000000000000000000000815250905090565b6000806113bb611f76565b90506113d884828560405180602001604052806000815250612267565b91505092915050565b6000806113ec611f76565b905061143f87828888888080601f016020809104026020016040519081016040528093929190818152602001838380828437600081840152601f19601f8201169050808301925050505050505087611db9565b91505095945050505050565b611453610ab7565b73ffffffffffffffffffffffffffffffffffffffff16611471611f76565b73ffffffffffffffffffffffffffffffffffffffff16146114c7576040517f08c379a00000000000000000000000000000000000000000000000000000000081526004016114be90614b7c565b60405180910390fd5b3073ffffffffffffffffffffffffffffffffffffffff166114e6610ab7565b73ffffffffffffffffffffffffffffffffffffffff161461153b57600061150b611f7e565b604051611519929190614ab5565b604051809103902090505b8061152f6002611f8b565b1461153957611524565b505b61154481612479565b50565b600080611552611f76565b90506115a486828787878080601f016020809104026020016040519081016040528093929190818152602001838380828437600081840152601f19601f82011690508083019250505050505050612267565b915050949350505050565b60006115bd858585856124be565b9050949350505050565b60006064905090565b60006115dd8484846127c5565b90509392505050565b6000600854905090565b6115f8610ab7565b73ffffffffffffffffffffffffffffffffffffffff16611616611f76565b73ffffffffffffffffffffffffffffffffffffffff161461166c576040517f08c379a000000000000000000000000000000000000000000000000000000000815260040161166390614b7c565b60405180910390fd5b3073ffffffffffffffffffffffffffffffffffffffff1661168b610ab7565b73ffffffffffffffffffffffffffffffffffffffff16146116e05760006116b0611f7e565b6040516116be929190614ab5565b604051809103902090505b806116d46002611f8b565b146116de576116c9565b505b6116e98161287b565b50565b600080600960009054906101000a900473ffffffffffffffffffffffffffffffffffffffff1673ffffffffffffffffffffffffffffffffffffffff1663d45c4435600a6000868152602001908152602001600020546040518263ffffffff1660e01b815260040161175d9190614216565b60206040518083038186803b15801561177557600080fd5b505afa158015611789573d6000803e3d6000fd5b505050506040513d601f19601f820116820180604052508101906117ad9190614ca4565b9050600181146117bd57806117c0565b60005b915050919050565b60006117d261291a565b905090565b600063bc197c8160e01b905095945050505050565b6000611849600160008481526020019081526020016000206001016040518060200160405290816000820160009054906101000a900467ffffffffffffffff1667ffffffffffffffff1667ffffffffffffffff168152505061224f565b67ffffffffffffffff169050919050565b611862610ab7565b73ffffffffffffffffffffffffffffffffffffffff16611880611f76565b73ffffffffffffffffffffffffffffffffffffffff16146118d6576040517f08c379a00000000000000000000000000000000000000000000000000000000081526004016118cd90614b7c565b60405180910390fd5b3073ffffffffffffffffffffffffffffffffffffffff166118f5610ab7565b73ffffffffffffffffffffffffffffffffffffffff161461194a57600061191a611f7e565b604051611928929190614ab5565b604051809103902090505b8061193e6002611f8b565b1461194857611933565b505b6119998483838080601f016020809104026020016040519081016040528093929190818152602001838380828437600081840152601f19601f8201169050808301925050505050505085612924565b5050505050565b6000848484846040516020016119b994939291906151b1565b6040516020818303038152906040528051906020012060001c9050949350505050565b6000600960009054906101000a900473ffffffffffffffffffffffffffffffffffffffff16905090565b60606040518060400160405280602081526020017f737570706f72743d627261766f2671756f72756d3d666f722c6162737461696e815250905090565b7f150214d74d59b7d1e90c73fc22ef3d991dd0a76b046543d4d80ab92d2a50328f81565b611a6f610ab7565b73ffffffffffffffffffffffffffffffffffffffff16611a8d611f76565b73ffffffffffffffffffffffffffffffffffffffff1614611ae3576040517f08c379a0000000000000000000000000000000000000000000000000000000008152600401611ada90614b7c565b60405180910390fd5b3073ffffffffffffffffffffffffffffffffffffffff16611b02610ab7565b73ffffffffffffffffffffffffffffffffffffffff1614611b57576000611b27611f7e565b604051611b35929190614ab5565b604051809103902090505b80611b4b6002611f8b565b14611b5557611b40565b505b611b6081612953565b50565b6000611b778383611b726129db565b6127c5565b905092915050565b611b87610ab7565b73ffffffffffffffffffffffffffffffffffffffff16611ba5611f76565b73ffffffffffffffffffffffffffffffffffffffff1614611bfb576040517f08c379a0000000000000000000000000000000000000000000000000000000008152600401611bf290614b7c565b60405180910390fd5b3073ffffffffffffffffffffffffffffffffffffffff16611c1a610ab7565b73ffffffffffffffffffffffffffffffffffffffff1614611c6f576000611c3f611f7e565b604051611c4d929190614ab5565b604051809103902090505b80611c636002611f8b565b14611c6d57611c58565b505b611c78816129f2565b50565b600063f23a6e6160e01b905095945050505050565b6000611c9b82612a37565b9050919050565b7f000000000000000000000000000000000000000000000000000000000000000081565b6000600960009054906101000a900473ffffffffffffffffffffffffffffffffffffffff16905090565b60007f6e665ced000000000000000000000000000000000000000000000000000000007bffffffffffffffffffffffffffffffffffffffffffffffffffffffff1916827bffffffffffffffffffffffffffffffffffffffffffffffffffffffff19161480611d635750611d6282612b0d565b5b9050919050565b6000600554905090565b6000611d87611d81612c72565b83612d8c565b9050919050565b6000806000611d9f87878787612dbf565b91509150611dac81612ecc565b8192505050949350505050565b60008060016000888152602001908152602001600020905060016007811115611de557611de46142ac565b5b611dee886112be565b6007811115611e0057611dff6142ac565b5b14611e40576040517f08c379a0000000000000000000000000000000000000000000000000000000008152600401611e379061527d565b60405180910390fd5b6000611e9f87611e8f846000016040518060200160405290816000820160009054906101000a900467ffffffffffffffff1667ffffffffffffffff1667ffffffffffffffff168152505061224f565b67ffffffffffffffff16866127c5565b9050611eae88888884886130a1565b600084511415611f11578673ffffffffffffffffffffffffffffffffffffffff167fb8e138887d0aa13bab447e82de9d5c1777041ecd21ca36ba824ff1e6c07ddda489888489604051611f04949392919061529d565b60405180910390a2611f68565b8673ffffffffffffffffffffffffffffffffffffffff167fe2babfbac5889a709b63bb7f598b324e08bc5a4fb9ec647fb3cbc9ec07eb87128988848989604051611f5f959493929190615333565b60405180910390a25b809250505095945050505050565b600033905090565b3660008036915091509091565b6000611f96826132a8565b15611fcd576040517f3db2a12a00000000000000000000000000000000000000000000000000000000815260040160405180910390fd5b60008260000160009054906101000a9004600f0b905082600101600082600f0b600f0b815260200190815260200160002054915082600101600082600f0b600f0b815260200190815260200160002060009055600181018360000160006101000a8154816fffffffffffffffffffffffffffffffff0219169083600f0b6fffffffffffffffffffffffffffffffff16021790555050919050565b61206f6115c7565b8111156120b1576040517f08c379a00000000000000000000000000000000000000000000000000000000081526004016120a89061542c565b60405180910390fd5b60006008549050816008819055507f0553476bf02ef2726e8ce5ced78d63e26e602e4a2257b1f559418e24b463399781836040516120f0929190615151565b60405180910390a15050565b3073ffffffffffffffffffffffffffffffffffffffff1661211b610ab7565b73ffffffffffffffffffffffffffffffffffffffff16146121d95760005b84518110156121d7573073ffffffffffffffffffffffffffffffffffffffff1685828151811061216c5761216b61544c565b5b602002602001015173ffffffffffffffffffffffffffffffffffffffff1614156121c6576121c58382815181106121a6576121a561544c565b5b60200260200101518051906020012060026132dd90919063ffffffff16565b5b806121d09061547b565b9050612139565b505b5050505050565b6121ed8585858585613359565b5050505050565b3073ffffffffffffffffffffffffffffffffffffffff16612213610ab7565b73ffffffffffffffffffffffffffffffffffffffff16146122485761223860026132a8565b6122475761224660026133f7565b5b5b5050505050565b600081600001519050919050565b6000600454905090565b600061227d858585856122786129db565b611db9565b9050949350505050565b60008061229383613478565b9050600460078111156122a9576122a86142ac565b5b8160078111156122bc576122bb6142ac565b5b146122ca5780915050612474565b6000600a60008581526020019081526020016000205490506000801b8114156122f7578192505050612474565b600960009054906101000a900473ffffffffffffffffffffffffffffffffffffffff1673ffffffffffffffffffffffffffffffffffffffff16632ab0f529826040518263ffffffff1660e01b81526004016123529190614216565b60206040518083038186803b15801561236a57600080fd5b505afa15801561237e573d6000803e3d6000fd5b505050506040513d601f19601f820116820180604052508101906123a291906154f0565b156123b257600792505050612474565b600960009054906101000a900473ffffffffffffffffffffffffffffffffffffffff1673ffffffffffffffffffffffffffffffffffffffff1663584b153e826040518263ffffffff1660e01b815260040161240d9190614216565b60206040518083038186803b15801561242557600080fd5b505afa158015612439573d6000803e3d6000fd5b505050506040513d601f19601f8201168201806040525081019061245d91906154f0565b1561246d57600592505050612474565b6002925050505b919050565b7fc565b045403dc03c2eea82b81a0465edad9e2e7fc4d97e11421c209da93d7a93600454826040516124ac929190615151565b60405180910390a18060048190555050565b60006124c86117c8565b6124e56124d3611f76565b6001436124e0919061551d565b611b63565b1015612526576040517f08c379a000000000000000000000000000000000000000000000000000000000815260040161251d906155c3565b60405180910390fd5b600061253b86868686805190602001206119a0565b90508451865114612581576040517f08c379a000000000000000000000000000000000000000000000000000000000815260040161257890615655565b60405180910390fd5b83518651146125c5576040517f08c379a00000000000000000000000000000000000000000000000000000000081526004016125bc90615655565b60405180910390fd5b6000865111612609576040517f08c379a0000000000000000000000000000000000000000000000000000000008152600401612600906156c1565b60405180910390fd5b6000600160008381526020019081526020016000209050612669816000016040518060200160405290816000820160009054906101000a900467ffffffffffffffff1667ffffffffffffffff1667ffffffffffffffff168152505061358d565b6126a8576040517f08c379a000000000000000000000000000000000000000000000000000000000815260040161269f90615753565b60405180910390fd5b60006126ba6126b5611225565b6135a7565b6126c3436135a7565b6126cd9190615787565b905060006126e16126dc610ad8565b6135a7565b826126ec9190615787565b905061270482846000016135fe90919063ffffffff16565b61271a81846001016135fe90919063ffffffff16565b7f7d84a6263ae0d98d3329bd7b46bb4e8d6f98cd35a7adb45c274c8b7fd5ebd5e084612744611f76565b8b8b8d5167ffffffffffffffff81111561276157612760613ac4565b5b60405190808252806020026020018201604052801561279457816020015b606081526020019060019003908161277f5790505b508c88888e6040516127ae99989796959493929190615902565b60405180910390a183945050505050949350505050565b60007f000000000000000000000000000000000000000000000000000000000000000073ffffffffffffffffffffffffffffffffffffffff16633a46b1a885856040518363ffffffff1660e01b81526004016128229291906159b2565b60206040518083038186803b15801561283a57600080fd5b505afa15801561284e573d6000803e3d6000fd5b505050506040513d601f19601f820116820180604052508101906128729190614ca4565b90509392505050565b7f08f74ea46ef7894f65eabfb5e6e695de773a000b47c529ab559178069b226401600960009054906101000a900473ffffffffffffffffffffffffffffffffffffffff16826040516128ce9291906159db565b60405180910390a180600960006101000a81548173ffffffffffffffffffffffffffffffffffffffff021916908373ffffffffffffffffffffffffffffffffffffffff16021790555050565b6000600654905090565b606061294a8484846040518060600160405280602981526020016161fc6029913961362d565b90509392505050565b60008111612996576040517f08c379a000000000000000000000000000000000000000000000000000000000815260040161298d90615a76565b60405180910390fd5b7f7e3f7f0708a84de9203036abaa450dccc85ad5ff52f78c170f3edb55cf5e8828600554826040516129c9929190615151565b60405180910390a18060058190555050565b606060405180602001604052806000815250905090565b7fccb45da8d5717e6c4544694297c4ba5cf151d455c9bb0ed4fc7a38411bc0546160065482604051612a25929190615151565b60405180910390a18060068190555050565b6000612a416115c7565b612a496115e6565b7f000000000000000000000000000000000000000000000000000000000000000073ffffffffffffffffffffffffffffffffffffffff16638e539e8c856040518263ffffffff1660e01b8152600401612aa291906139c9565b60206040518083038186803b158015612aba57600080fd5b505afa158015612ace573d6000803e3d6000fd5b505050506040513d601f19601f82011682018060405250810190612af29190614ca4565b612afc9190615a96565b612b069190615b1f565b9050919050565b6000639a802a6d60e01b630342018160e01b635f398a1460e01b7f79dd796f000000000000000000000000000000000000000000000000000000001818187bffffffffffffffffffffffffffffffffffffffffffffffffffffffff1916827bffffffffffffffffffffffffffffffffffffffffffffffffffffffff19161480612bf357507f79dd796f000000000000000000000000000000000000000000000000000000007bffffffffffffffffffffffffffffffffffffffffffffffffffffffff1916827bffffffffffffffffffffffffffffffffffffffffffffffffffffffff1916145b80612c5b57507f4e2312e0000000000000000000000000000000000000000000000000000000007bffffffffffffffffffffffffffffffffffffffffffffffffffffffff1916827bffffffffffffffffffffffffffffffffffffffffffffffffffffffff1916145b80612c6b5750612c6a82613741565b5b9050919050565b60007f000000000000000000000000000000000000000000000000000000000000000073ffffffffffffffffffffffffffffffffffffffff163073ffffffffffffffffffffffffffffffffffffffff16148015612cee57507f000000000000000000000000000000000000000000000000000000000000000046145b15612d1b577f00000000000000000000000000000000000000000000000000000000000000009050612d89565b612d867f00000000000000000000000000000000000000000000000000000000000000007f00000000000000000000000000000000000000000000000000000000000000007f00000000000000000000000000000000000000000000000000000000000000006137ab565b90505b90565b60008282604051602001612da1929190615bc8565b60405160208183030381529060405280519060200120905092915050565b6000807f7fffffffffffffffffffffffffffffff5d576e7357a4501ddfe92f46681b20a08360001c1115612dfa576000600391509150612ec3565b601b8560ff1614158015612e125750601c8560ff1614155b15612e24576000600491509150612ec3565b600060018787878760405160008152602001604052604051612e499493929190615bff565b6020604051602081039080840390855afa158015612e6b573d6000803e3d6000fd5b505050602060405103519050600073ffffffffffffffffffffffffffffffffffffffff168173ffffffffffffffffffffffffffffffffffffffff161415612eba57600060019250925050612ec3565b80600092509250505b94509492505050565b60006004811115612ee057612edf6142ac565b5b816004811115612ef357612ef26142ac565b5b1415612efe5761309e565b60016004811115612f1257612f116142ac565b5b816004811115612f2557612f246142ac565b5b1415612f66576040517f08c379a0000000000000000000000000000000000000000000000000000000008152600401612f5d90615c90565b60405180910390fd5b60026004811115612f7a57612f796142ac565b5b816004811115612f8d57612f8c6142ac565b5b1415612fce576040517f08c379a0000000000000000000000000000000000000000000000000000000008152600401612fc590615cfc565b60405180910390fd5b60036004811115612fe257612fe16142ac565b5b816004811115612ff557612ff46142ac565b5b1415613036576040517f08c379a000000000000000000000000000000000000000000000000000000000815260040161302d90615d8e565b60405180910390fd5b600480811115613049576130486142ac565b5b81600481111561305c5761305b6142ac565b5b141561309d576040517f08c379a000000000000000000000000000000000000000000000000000000000815260040161309490615e20565b60405180910390fd5b5b50565b60006007600087815260200190815260200160002090508060030160008673ffffffffffffffffffffffffffffffffffffffff1673ffffffffffffffffffffffffffffffffffffffff16815260200190815260200160002060009054906101000a900460ff1615613147576040517f08c379a000000000000000000000000000000000000000000000000000000000815260040161313e90615eb2565b60405180910390fd5b60018160030160008773ffffffffffffffffffffffffffffffffffffffff1673ffffffffffffffffffffffffffffffffffffffff16815260200190815260200160002060006101000a81548160ff021916908315150217905550600060028111156131b5576131b46142ac565b5b60ff168460ff1614156131e257828160000160008282546131d691906150fb565b925050819055506132a0565b600160028111156131f6576131f56142ac565b5b60ff168460ff161415613223578281600101600082825461321791906150fb565b9250508190555061329f565b600280811115613236576132356142ac565b5b60ff168460ff161415613263578281600201600082825461325791906150fb565b9250508190555061329e565b6040517f08c379a000000000000000000000000000000000000000000000000000000000815260040161329590615f44565b60405180910390fd5b5b5b505050505050565b60008160000160009054906101000a9004600f0b600f0b8260000160109054906101000a9004600f0b600f0b13159050919050565b60008260000160109054906101000a9004600f0b90508183600101600083600f0b600f0b815260200190815260200160002081905550600181018360000160106101000a8154816fffffffffffffffffffffffffffffffff0219169083600f0b6fffffffffffffffffffffffffffffffff160217905550505050565b600960009054906101000a900473ffffffffffffffffffffffffffffffffffffffff1673ffffffffffffffffffffffffffffffffffffffff1663e38335e5348686866000876040518763ffffffff1660e01b81526004016133be959493929190614fac565b6000604051808303818588803b1580156133d757600080fd5b505af11580156133eb573d6000803e3d6000fd5b50505050505050505050565b60008160000160006101000a8154816fffffffffffffffffffffffffffffffff0219169083600f0b6fffffffffffffffffffffffffffffffff16021790555060008160000160106101000a8154816fffffffffffffffffffffffffffffffff0219169083600f0b6fffffffffffffffffffffffffffffffff16021790555050565b6000806001600084815260200190815260200160002090508060020160009054906101000a900460ff16156134b1576007915050613588565b8060020160019054906101000a900460ff16156134d2576002915050613588565b60006134dd84611193565b90506000811415613523576040517f08c379a000000000000000000000000000000000000000000000000000000000815260040161351a90615fb0565b60405180910390fd5b43811061353557600092505050613588565b6000613540856117ec565b90504381106135555760019350505050613588565b61355e856137e5565b801561356f575061356e8561382c565b5b156135805760049350505050613588565b600393505050505b919050565b600080826000015167ffffffffffffffff16149050919050565b600067ffffffffffffffff80168211156135f6576040517f08c379a00000000000000000000000000000000000000000000000000000000081526004016135ed90616042565b60405180910390fd5b819050919050565b808260000160006101000a81548167ffffffffffffffff021916908367ffffffffffffffff1602179055505050565b606082471015613672576040517f08c379a0000000000000000000000000000000000000000000000000000000008152600401613669906160d4565b60405180910390fd5b61367b85613857565b6136ba576040517f08c379a00000000000000000000000000000000000000000000000000000000081526004016136b190616140565b60405180910390fd5b6000808673ffffffffffffffffffffffffffffffffffffffff1685876040516136e39190616191565b60006040518083038185875af1925050503d8060008114613720576040519150601f19603f3d011682016040523d82523d6000602084013e613725565b606091505b509150915061373582828661387a565b92505050949350505050565b60007f01ffc9a7000000000000000000000000000000000000000000000000000000007bffffffffffffffffffffffffffffffffffffffffffffffffffffffff1916827bffffffffffffffffffffffffffffffffffffffffffffffffffffffff1916149050919050565b600083838346306040516020016137c69594939291906161a8565b6040516020818303038152906040528051906020012090509392505050565b6000806007600084815260200190815260200160002090508060020154816001015461381191906150fb565b61382261381d85611193565b611c90565b1115915050919050565b6000806007600084815260200190815260200160002090508060000154816001015411915050919050565b6000808273ffffffffffffffffffffffffffffffffffffffff163b119050919050565b6060831561388a578290506138da565b60008351111561389d5782518084602001fd5b816040517f08c379a00000000000000000000000000000000000000000000000000000000081526004016138d19190613db8565b60405180910390fd5b9392505050565b6000604051905090565b600080fd5b600080fd5b60007fffffffff0000000000000000000000000000000000000000000000000000000082169050919050565b61392a816138f5565b811461393557600080fd5b50565b60008135905061394781613921565b92915050565b600060208284031215613963576139626138eb565b5b600061397184828501613938565b91505092915050565b60008115159050919050565b61398f8161397a565b82525050565b60006020820190506139aa6000830184613986565b92915050565b6000819050919050565b6139c3816139b0565b82525050565b60006020820190506139de60008301846139ba565b92915050565b6139ed816139b0565b81146139f857600080fd5b50565b600081359050613a0a816139e4565b92915050565b600060ff82169050919050565b613a2681613a10565b8114613a3157600080fd5b50565b600081359050613a4381613a1d565b92915050565b600080fd5b600080fd5b600080fd5b60008083601f840112613a6e57613a6d613a49565b5b8235905067ffffffffffffffff811115613a8b57613a8a613a4e565b5b602083019150836001820283011115613aa757613aa6613a53565b5b9250929050565b600080fd5b6000601f19601f8301169050919050565b7f4e487b7100000000000000000000000000000000000000000000000000000000600052604160045260246000fd5b613afc82613ab3565b810181811067ffffffffffffffff82111715613b1b57613b1a613ac4565b5b80604052505050565b6000613b2e6138e1565b9050613b3a8282613af3565b919050565b600067ffffffffffffffff821115613b5a57613b59613ac4565b5b613b6382613ab3565b9050602081019050919050565b82818337600083830152505050565b6000613b92613b8d84613b3f565b613b24565b905082815260208101848484011115613bae57613bad613aae565b5b613bb9848285613b70565b509392505050565b600082601f830112613bd657613bd5613a49565b5b8135613be6848260208601613b7f565b91505092915050565b6000819050919050565b613c0281613bef565b8114613c0d57600080fd5b50565b600081359050613c1f81613bf9565b92915050565b60008060008060008060008060e0898b031215613c4557613c446138eb565b5b6000613c538b828c016139fb565b9850506020613c648b828c01613a34565b975050604089013567ffffffffffffffff811115613c8557613c846138f0565b5b613c918b828c01613a58565b9650965050606089013567ffffffffffffffff811115613cb457613cb36138f0565b5b613cc08b828c01613bc1565b9450506080613cd18b828c01613a34565b93505060a0613ce28b828c01613c10565b92505060c0613cf38b828c01613c10565b9150509295985092959890939650565b600060208284031215613d1957613d186138eb565b5b6000613d27848285016139fb565b91505092915050565b600081519050919050565b600082825260208201905092915050565b60005b83811015613d6a578082015181840152602081019050613d4f565b83811115613d79576000848401525b50505050565b6000613d8a82613d30565b613d948185613d3b565b9350613da4818560208601613d4c565b613dad81613ab3565b840191505092915050565b60006020820190508181036000830152613dd28184613d7f565b905092915050565b600073ffffffffffffffffffffffffffffffffffffffff82169050919050565b6000613e0582613dda565b9050919050565b613e1581613dfa565b8114613e2057600080fd5b50565b600081359050613e3281613e0c565b92915050565b60008060008060808587031215613e5257613e516138eb565b5b6000613e6087828801613e23565b9450506020613e7187828801613e23565b9350506040613e82878288016139fb565b925050606085013567ffffffffffffffff811115613ea357613ea26138f0565b5b613eaf87828801613bc1565b91505092959194509250565b613ec4816138f5565b82525050565b6000602082019050613edf6000830184613ebb565b92915050565b600067ffffffffffffffff821115613f0057613eff613ac4565b5b602082029050602081019050919050565b6000613f24613f1f84613ee5565b613b24565b90508083825260208201905060208402830185811115613f4757613f46613a53565b5b835b81811015613f705780613f5c8882613e23565b845260208401935050602081019050613f49565b5050509392505050565b600082601f830112613f8f57613f8e613a49565b5b8135613f9f848260208601613f11565b91505092915050565b600067ffffffffffffffff821115613fc357613fc2613ac4565b5b602082029050602081019050919050565b6000613fe7613fe284613fa8565b613b24565b9050808382526020820190506020840283018581111561400a57614009613a53565b5b835b81811015614033578061401f88826139fb565b84526020840193505060208101905061400c565b5050509392505050565b600082601f83011261405257614051613a49565b5b8135614062848260208601613fd4565b91505092915050565b600067ffffffffffffffff82111561408657614085613ac4565b5b602082029050602081019050919050565b60006140aa6140a58461406b565b613b24565b905080838252602082019050602084028301858111156140cd576140cc613a53565b5b835b8181101561411457803567ffffffffffffffff8111156140f2576140f1613a49565b5b8086016140ff8982613bc1565b855260208501945050506020810190506140cf565b5050509392505050565b600082601f83011261413357614132613a49565b5b8135614143848260208601614097565b91505092915050565b60008060008060808587031215614166576141656138eb565b5b600085013567ffffffffffffffff811115614184576141836138f0565b5b61419087828801613f7a565b945050602085013567ffffffffffffffff8111156141b1576141b06138f0565b5b6141bd8782880161403d565b935050604085013567ffffffffffffffff8111156141de576141dd6138f0565b5b6141ea8782880161411e565b92505060606141fb87828801613c10565b91505092959194509250565b61421081613bef565b82525050565b600060208201905061422b6000830184614207565b92915050565b600080600080600060a0868803121561424d5761424c6138eb565b5b600061425b888289016139fb565b955050602061426c88828901613a34565b945050604061427d88828901613a34565b935050606061428e88828901613c10565b925050608061429f88828901613c10565b9150509295509295909350565b7f4e487b7100000000000000000000000000000000000000000000000000000000600052602160045260246000fd5b600881106142ec576142eb6142ac565b5b50565b60008190506142fd826142db565b919050565b600061430d826142ef565b9050919050565b61431d81614302565b82525050565b60006020820190506143386000830184614314565b92915050565b60008060408385031215614355576143546138eb565b5b6000614363858286016139fb565b925050602061437485828601613e23565b9150509250929050565b600060608201905061439360008301866139ba565b6143a060208301856139ba565b6143ad60408301846139ba565b949350505050565b600080604083850312156143cc576143cb6138eb565b5b60006143da858286016139fb565b92505060206143eb85828601613a34565b9150509250929050565b600080600080600060808688031215614411576144106138eb565b5b600061441f888289016139fb565b955050602061443088828901613a34565b945050604086013567ffffffffffffffff811115614451576144506138f0565b5b61445d88828901613a58565b9350935050606086013567ffffffffffffffff8111156144805761447f6138f0565b5b61448c88828901613bc1565b9150509295509295909350565b600080600080606085870312156144b3576144b26138eb565b5b60006144c1878288016139fb565b94505060206144d287828801613a34565b935050604085013567ffffffffffffffff8111156144f3576144f26138f0565b5b6144ff87828801613a58565b925092505092959194509250565b600067ffffffffffffffff82111561452857614527613ac4565b5b61453182613ab3565b9050602081019050919050565b600061455161454c8461450d565b613b24565b90508281526020810184848401111561456d5761456c613aae565b5b614578848285613b70565b509392505050565b600082601f83011261459557614594613a49565b5b81356145a584826020860161453e565b91505092915050565b600080600080608085870312156145c8576145c76138eb565b5b600085013567ffffffffffffffff8111156145e6576145e56138f0565b5b6145f287828801613f7a565b945050602085013567ffffffffffffffff811115614613576146126138f0565b5b61461f8782880161403d565b935050604085013567ffffffffffffffff8111156146405761463f6138f0565b5b61464c8782880161411e565b925050606085013567ffffffffffffffff81111561466d5761466c6138f0565b5b61467987828801614580565b91505092959194509250565b60008060006060848603121561469e5761469d6138eb565b5b60006146ac86828701613e23565b93505060206146bd868287016139fb565b925050604084013567ffffffffffffffff8111156146de576146dd6138f0565b5b6146ea86828701613bc1565b9150509250925092565b60006146ff82613dda565b9050919050565b6000614711826146f4565b9050919050565b61472181614706565b811461472c57600080fd5b50565b60008135905061473e81614718565b92915050565b60006020828403121561475a576147596138eb565b5b60006147688482850161472f565b91505092915050565b600080600080600060a0868803121561478d5761478c6138eb565b5b600061479b88828901613e23565b95505060206147ac88828901613e23565b945050604086013567ffffffffffffffff8111156147cd576147cc6138f0565b5b6147d98882890161403d565b935050606086013567ffffffffffffffff8111156147fa576147f96138f0565b5b6148068882890161403d565b925050608086013567ffffffffffffffff811115614827576148266138f0565b5b61483388828901613bc1565b9150509295509295909350565b60008083601f84011261485657614855613a49565b5b8235905067ffffffffffffffff81111561487357614872613a4e565b5b60208301915083600182028301111561488f5761488e613a53565b5b9250929050565b600080600080606085870312156148b0576148af6138eb565b5b60006148be87828801613e23565b94505060206148cf878288016139fb565b935050604085013567ffffffffffffffff8111156148f0576148ef6138f0565b5b6148fc87828801614840565b925092505092959194509250565b61491381613dfa565b82525050565b600060208201905061492e600083018461490a565b92915050565b6000806040838503121561494b5761494a6138eb565b5b600061495985828601613e23565b925050602061496a858286016139fb565b9150509250929050565b600080600080600060a086880312156149905761498f6138eb565b5b600061499e88828901613e23565b95505060206149af88828901613e23565b94505060406149c0888289016139fb565b93505060606149d1888289016139fb565b925050608086013567ffffffffffffffff8111156149f2576149f16138f0565b5b6149fe88828901613bc1565b9150509295509295909350565b6000819050919050565b6000614a30614a2b614a2684613dda565b614a0b565b613dda565b9050919050565b6000614a4282614a15565b9050919050565b6000614a5482614a37565b9050919050565b614a6481614a49565b82525050565b6000602082019050614a7f6000830184614a5b565b92915050565b600081905092915050565b6000614a9c8385614a85565b9350614aa9838584613b70565b82840190509392505050565b6000614ac2828486614a90565b91508190509392505050565b614ad781613a10565b82525050565b600060a082019050614af26000830188614207565b614aff60208301876139ba565b614b0c6040830186614ace565b614b196060830185614207565b614b266080830184614207565b9695505050505050565b7f476f7665726e6f723a206f6e6c79476f7665726e616e63650000000000000000600082015250565b6000614b66601883613d3b565b9150614b7182614b30565b602082019050919050565b60006020820190508181036000830152614b9581614b59565b9050919050565b7f4e487b7100000000000000000000000000000000000000000000000000000000600052602260045260246000fd5b60006002820490506001821680614be357607f821691505b60208210811415614bf757614bf6614b9c565b5b50919050565b7f476f7665726e6f723a2070726f706f73616c206e6f742073756363657373667560008201527f6c00000000000000000000000000000000000000000000000000000000000000602082015250565b6000614c59602183613d3b565b9150614c6482614bfd565b604082019050919050565b60006020820190508181036000830152614c8881614c4c565b9050919050565b600081519050614c9e816139e4565b92915050565b600060208284031215614cba57614cb96138eb565b5b6000614cc884828501614c8f565b91505092915050565b600081519050919050565b600082825260208201905092915050565b6000819050602082019050919050565b614d0681613dfa565b82525050565b6000614d188383614cfd565b60208301905092915050565b6000602082019050919050565b6000614d3c82614cd1565b614d468185614cdc565b9350614d5183614ced565b8060005b83811015614d82578151614d698882614d0c565b9750614d7483614d24565b925050600181019050614d55565b5085935050505092915050565b600081519050919050565b600082825260208201905092915050565b6000819050602082019050919050565b614dc4816139b0565b82525050565b6000614dd68383614dbb565b60208301905092915050565b6000602082019050919050565b6000614dfa82614d8f565b614e048185614d9a565b9350614e0f83614dab565b8060005b83811015614e40578151614e278882614dca565b9750614e3283614de2565b925050600181019050614e13565b5085935050505092915050565b600081519050919050565b600082825260208201905092915050565b6000819050602082019050919050565b600081519050919050565b600082825260208201905092915050565b6000614ea082614e79565b614eaa8185614e84565b9350614eba818560208601613d4c565b614ec381613ab3565b840191505092915050565b6000614eda8383614e95565b905092915050565b6000602082019050919050565b6000614efa82614e4d565b614f048185614e58565b935083602082028501614f1685614e69565b8060005b85811015614f525784840389528151614f338582614ece565b9450614f3e83614ee2565b925060208a01995050600181019050614f1a565b50829750879550505050505092915050565b6000819050919050565b60008160001b9050919050565b6000614f96614f91614f8c84614f64565b614f6e565b613bef565b9050919050565b614fa681614f7b565b82525050565b600060a0820190508181036000830152614fc68188614d31565b90508181036020830152614fda8187614def565b90508181036040830152614fee8186614eef565b9050614ffd6060830185614f9d565b61500a6080830184614207565b9695505050505050565b60008151905061502381613bf9565b92915050565b60006020828403121561503f5761503e6138eb565b5b600061504d84828501615014565b91505092915050565b600060c08201905081810360008301526150708189614d31565b905081810360208301526150848188614def565b905081810360408301526150988187614eef565b90506150a76060830186614f9d565b6150b46080830185614207565b6150c160a08301846139ba565b979650505050505050565b7f4e487b7100000000000000000000000000000000000000000000000000000000600052601160045260246000fd5b6000615106826139b0565b9150615111836139b0565b9250827fffffffffffffffffffffffffffffffffffffffffffffffffffffffffffffffff03821115615146576151456150cc565b5b828201905092915050565b600060408201905061516660008301856139ba565b61517360208301846139ba565b9392505050565b600060608201905061518f6000830186614207565b61519c60208301856139ba565b6151a96040830184614ace565b949350505050565b600060808201905081810360008301526151cb8187614d31565b905081810360208301526151df8186614def565b905081810360408301526151f38185614eef565b90506152026060830184614207565b95945050505050565b7f476f7665726e6f723a20766f7465206e6f742063757272656e746c792061637460008201527f6976650000000000000000000000000000000000000000000000000000000000602082015250565b6000615267602383613d3b565b91506152728261520b565b604082019050919050565b600060208201905081810360008301526152968161525a565b9050919050565b60006080820190506152b260008301876139ba565b6152bf6020830186614ace565b6152cc60408301856139ba565b81810360608301526152de8184613d7f565b905095945050505050565b600082825260208201905092915050565b600061530582614e79565b61530f81856152e9565b935061531f818560208601613d4c565b61532881613ab3565b840191505092915050565b600060a08201905061534860008301886139ba565b6153556020830187614ace565b61536260408301866139ba565b81810360608301526153748185613d7f565b9050818103608083015261538881846152fa565b90509695505050505050565b7f476f7665726e6f72566f74657351756f72756d4672616374696f6e3a2071756f60008201527f72756d4e756d657261746f72206f7665722071756f72756d44656e6f6d696e6160208201527f746f720000000000000000000000000000000000000000000000000000000000604082015250565b6000615416604383613d3b565b915061542182615394565b606082019050919050565b6000602082019050818103600083015261544581615409565b9050919050565b7f4e487b7100000000000000000000000000000000000000000000000000000000600052603260045260246000fd5b6000615486826139b0565b91507fffffffffffffffffffffffffffffffffffffffffffffffffffffffffffffffff8214156154b9576154b86150cc565b5b600182019050919050565b6154cd8161397a565b81146154d857600080fd5b50565b6000815190506154ea816154c4565b92915050565b600060208284031215615506576155056138eb565b5b6000615514848285016154db565b91505092915050565b6000615528826139b0565b9150615533836139b0565b925082821015615546576155456150cc565b5b828203905092915050565b7f476f7665726e6f723a2070726f706f73657220766f7465732062656c6f77207060008201527f726f706f73616c207468726573686f6c64000000000000000000000000000000602082015250565b60006155ad603183613d3b565b91506155b882615551565b604082019050919050565b600060208201905081810360008301526155dc816155a0565b9050919050565b7f476f7665726e6f723a20696e76616c69642070726f706f73616c206c656e677460008201527f6800000000000000000000000000000000000000000000000000000000000000602082015250565b600061563f602183613d3b565b915061564a826155e3565b604082019050919050565b6000602082019050818103600083015261566e81615632565b9050919050565b7f476f7665726e6f723a20656d7074792070726f706f73616c0000000000000000600082015250565b60006156ab601883613d3b565b91506156b682615675565b602082019050919050565b600060208201905081810360008301526156da8161569e565b9050919050565b7f476f7665726e6f723a2070726f706f73616c20616c726561647920657869737460008201527f7300000000000000000000000000000000000000000000000000000000000000602082015250565b600061573d602183613d3b565b9150615748826156e1565b604082019050919050565b6000602082019050818103600083015261576c81615730565b9050919050565b600067ffffffffffffffff82169050919050565b600061579282615773565b915061579d83615773565b92508267ffffffffffffffff038211156157ba576157b96150cc565b5b828201905092915050565b600081519050919050565b600082825260208201905092915050565b6000819050602082019050919050565b600082825260208201905092915050565b600061580d82613d30565b61581781856157f1565b9350615827818560208601613d4c565b61583081613ab3565b840191505092915050565b60006158478383615802565b905092915050565b6000602082019050919050565b6000615867826157c5565b61587181856157d0565b935083602082028501615883856157e1565b8060005b858110156158bf57848403895281516158a0858261583b565b94506158ab8361584f565b925060208a01995050600181019050615887565b50829750879550505050505092915050565b60006158ec6158e76158e284615773565b614a0b565b6139b0565b9050919050565b6158fc816158d1565b82525050565b600061012082019050615918600083018c6139ba565b615925602083018b61490a565b8181036040830152615937818a614d31565b9050818103606083015261594b8189614def565b9050818103608083015261595f818861585c565b905081810360a08301526159738187614eef565b905061598260c08301866158f3565b61598f60e08301856158f3565b8181036101008301526159a28184613d7f565b90509a9950505050505050505050565b60006040820190506159c7600083018561490a565b6159d460208301846139ba565b9392505050565b60006040820190506159f0600083018561490a565b6159fd602083018461490a565b9392505050565b7f476f7665726e6f7253657474696e67733a20766f74696e6720706572696f642060008201527f746f6f206c6f7700000000000000000000000000000000000000000000000000602082015250565b6000615a60602783613d3b565b9150615a6b82615a04565b604082019050919050565b60006020820190508181036000830152615a8f81615a53565b9050919050565b6000615aa1826139b0565b9150615aac836139b0565b9250817fffffffffffffffffffffffffffffffffffffffffffffffffffffffffffffffff0483118215151615615ae557615ae46150cc565b5b828202905092915050565b7f4e487b7100000000000000000000000000000000000000000000000000000000600052601260045260246000fd5b6000615b2a826139b0565b9150615b35836139b0565b925082615b4557615b44615af0565b5b828204905092915050565b600081905092915050565b7f1901000000000000000000000000000000000000000000000000000000000000600082015250565b6000615b91600283615b50565b9150615b9c82615b5b565b600282019050919050565b6000819050919050565b615bc2615bbd82613bef565b615ba7565b82525050565b6000615bd382615b84565b9150615bdf8285615bb1565b602082019150615bef8284615bb1565b6020820191508190509392505050565b6000608082019050615c146000830187614207565b615c216020830186614ace565b615c2e6040830185614207565b615c3b6060830184614207565b95945050505050565b7f45434453413a20696e76616c6964207369676e61747572650000000000000000600082015250565b6000615c7a601883613d3b565b9150615c8582615c44565b602082019050919050565b60006020820190508181036000830152615ca981615c6d565b9050919050565b7f45434453413a20696e76616c6964207369676e6174757265206c656e67746800600082015250565b6000615ce6601f83613d3b565b9150615cf182615cb0565b602082019050919050565b60006020820190508181036000830152615d1581615cd9565b9050919050565b7f45434453413a20696e76616c6964207369676e6174757265202773272076616c60008201527f7565000000000000000000000000000000000000000000000000000000000000602082015250565b6000615d78602283613d3b565b9150615d8382615d1c565b604082019050919050565b60006020820190508181036000830152615da781615d6b565b9050919050565b7f45434453413a20696e76616c6964207369676e6174757265202776272076616c60008201527f7565000000000000000000000000000000000000000000000000000000000000602082015250565b6000615e0a602283613d3b565b9150615e1582615dae565b604082019050919050565b60006020820190508181036000830152615e3981615dfd565b9050919050565b7f476f7665726e6f72566f74696e6753696d706c653a20766f746520616c72656160008201527f6479206361737400000000000000000000000000000000000000000000000000602082015250565b6000615e9c602783613d3b565b9150615ea782615e40565b604082019050919050565b60006020820190508181036000830152615ecb81615e8f565b9050919050565b7f476f7665726e6f72566f74696e6753696d706c653a20696e76616c696420766160008201527f6c756520666f7220656e756d20566f7465547970650000000000000000000000602082015250565b6000615f2e603583613d3b565b9150615f3982615ed2565b604082019050919050565b60006020820190508181036000830152615f5d81615f21565b9050919050565b7f476f7665726e6f723a20756e6b6e6f776e2070726f706f73616c206964000000600082015250565b6000615f9a601d83613d3b565b9150615fa582615f64565b602082019050919050565b60006020820190508181036000830152615fc981615f8d565b9050919050565b7f53616665436173743a2076616c756520646f65736e27742066697420696e203660008201527f3420626974730000000000000000000000000000000000000000000000000000602082015250565b600061602c602683613d3b565b915061603782615fd0565b604082019050919050565b6000602082019050818103600083015261605b8161601f565b9050919050565b7f416464726573733a20696e73756666696369656e742062616c616e636520666f60008201527f722063616c6c0000000000000000000000000000000000000000000000000000602082015250565b60006160be602683613d3b565b91506160c982616062565b604082019050919050565b600060208201905081810360008301526160ed816160b1565b9050919050565b7f416464726573733a2063616c6c20746f206e6f6e2d636f6e7472616374000000600082015250565b600061612a601d83613d3b565b9150616135826160f4565b602082019050919050565b600060208201905081810360008301526161598161611d565b9050919050565b600061616b82614e79565b6161758185614a85565b9350616185818560208601613d4c565b80840191505092915050565b600061619d8284616160565b915081905092915050565b600060a0820190506161bd6000830188614207565b6161ca6020830187614207565b6161d76040830186614207565b6161e460608301856139ba565b6161f1608083018461490a565b969550505050505056fe416464726573733a206c6f772d6c6576656c2063616c6c20776974682076616c7565206661696c6564a2646970667358221220ac02fa886520ba454bf09a47b9af04a67302637887a3ead1ea5d3b45affc81ff64736f6c63430008080033",
  "linkReferences": {},
  "deployedLinkReferences": {}
}